:400000000080002011000000011700000117000008B5044B1A6803F53F5302331A6001F08FFB00BFFA46004010B5054C237833B9044B13B10448AFF300800123237010BDBC
:400040005081FF1F00000000B0310000084B10B51BB108490848AFF300800848036803B910BD074B002BFBD0BDE81040184700BF000000005481FF1FB0310000C880FF1F30
:400080000000000001608280C380042101844184053A12B28284053B1BB2C3848283C383012380F8443080F84530002303630387C3864387838703640C4A02656FF07F4212
:4000C0008264C36403614361836109E003F10B02002140F8321000EBC20211710133DBB2032BF3D9024B186001207047EF8B5E006C81FF1F30B4054B1C68303405460FCDD3
:400100000FC42B68236030BC704700BF6C81FF1F2DE9F04383B081460D46164698460A9F824201DA91460646A84502DA2B4645469846124B1B6893F8642012F0020F17D0A2
:400140001C6E00974346324629464846A04778B910E00A4B1B681B683A46294620469847013424B200E04C46A642F2DA01352DB2A845F8DA03B0BDE8F08300BF6C81FF1F2F
:4001800000B583B0084B1B68B3F90420B3F90630013B013A00901BB212B200210846FFF7B7FF03B05DF804FB6C81FF1F014B1B68986470476C81FF1F014B1B68D8647047BB
:4001C0006C81FF1F2DE9F04F87B00446049111460293DDF84480A0F1B0034C2B37D8DFE803F033363636363136363636363636363636363636362F3636363636363636363B
:4002000036363636363636362736363636362B363636363636362D3636363636363636363636363636363636353636363636290099240CE081240AE09A2408E0842406E099
:400240008E2404E0E62402E0F82400E09424A2B2B8F80A309A42C0F06781B8F80C00824200F262818AB20192B8F9062090B20590002800F059814FEAD00910F0070F01D0D9
:4002800009F10109D8F8100010B1E51A405D0590A748006890F86C5015F0020F00F09C80856EB8F90830019A1A44531E059E04983218013A1BB212B2A847074698F8043010
:4002C000002B38D1B8F80A30E41AB8F9083004FB03F303FB09F30022019226E0D8F8002003F1010BD65C00240CE016F0010F02D00298B84701E01098B8477608013DADB2F9
:400300000134A4B2072C01D8002DEED10AF1010A1FFA8AFA5B4602E0059D4FF0000ACA45DCD3019A013292B20192B8F9082001999142F1DBF8E0012B40F0F680B8F80A3020
:40034000E41AB8F9083004FB03F3B8F9062003FB02F30026DDF814B0029DDDF8409036E0D8F8002003F1010AD25CEBB25FFA89F0C2F5807101FB00F002FB0303C3F30720BE
:4003800005F47F4309F47F4E0EFB01FE03FB02E31B0A03F47F43034305F47F0009F47F0E0EFB01F100FB0210000A00F47F001843B8470134A4B2534600E000245C45CFD35D
:4003C000B8F90620CBEB020213440136B6B2B8F908209642F1DBA7E098F8041000294AD1E31AB8F9082003FB02F303FB09F3002203923AE0BDF81060059D4FF0000A2AE0DC
:40040000D8F8002003F1010BD75C00241AE017F0010F08D0464B1B681B68029ABDF9041030B2984707E0424B1B681B68109ABDF9041030B298477F080136B6B2013DADB25C
:400440000134A4B2072C01D8002DE0D10AF1010A1FFA8AFA5B46CA45D2D3019A013292B20192039A013292B20392B8F9082003999142BFDB58E0012956D1E41AB8F908306F
:4004800004FB03F303FB02F30027DDF814B0029EDDF8409044E0BDF81050002433E0D8F8002003F1010AD35CF2B25FFA89F1C3F5807000FB01F103FB0212C2F3072206F4CB
:4004C0007F4109F47F4E0EFB00FE01FB03E1090A01F47F41114306F47F0209F47F0E0EFB00F002FB0302120A02F47F02104B1B681B680A43BDF9041028B298470135ADB216
:400500000134A4B253465C45C9D3B8F90620CBEB02021344019A013292B201920137BFB2B8F908209742B6DB07B0BDE8F08F00BF6C81FF1F10B582B0044C24683034019470
:40054000049C0094FFF73EFE02B010BD6C81FF1F2DE9F04383B080460F461546064633E0013583B21B4A1468628F93422CD3A18F8B4229D80A2802D1B4F9046024E0236C82
:400580001BB1821A13F8029001E094F8369006EB0902B4F90430013B9A4207DDB4F9382094F9453013441F443FB24646A36CE26C00923A463146FFF7BDFF064B1B6893F9F4
:4005C00044304B441E4436B228780028C8D103B0BDE8F0836C81FF1F2DE9F04782B080460F4614469A46DDF82890054631E0013482B21B4B1B68598F8A422AD39E8FB24296
:4006000027D80A2802D1B3F9045022E01A6C12B1411A565C01E093F83660A919B3F90420013A914207DDB3F9382093F9453013441F443FB24546CDF8009053463A462946C0
:40064000FFF778FF064B1B6893F944301E4435442DB220780028CAD102B0BDE8F08700BF6C81FF1F032808D8044B1B680B3043F8301003EBC0000323037170476C81FF1FEF
:4006800010B5642001F0B6FC00240CE0002001F0A3FC322001F0AEFC012001F09DFC322001F0A8FC0134042CF0DD0121002001F063FC0A2001F09EFC0A2001F09BFC0121C2
:4006C000002001F059FC0A2001F094FC0A2001F091FC0121002001F04FFC0A2001F08AFC0A2001F087FCE021002001F045FC0121084601F041FC322001F07CFCE0210020B7
:4007000001F03AFC0321012001F036FC322001F071FC0121002001F02FFC0A2001F06AFC322001F067FCB021002001F025FC0821012001F021FC8021012001F01DFC0121AC
:40074000084601F019FCDF21012001F015FC0121084601F011FC0F21012001F00DFC0021012001F009FCF021002001F005FC0021012001F001FC3A21002001F0FDFB6021D9
:40078000012001F0F9FBE621002001F0F5FB0121084601F0F1FB4521012001F0EDFB4721012001F0E9FBB421002001F0E5FB0221012001F0E1FB0D21012001F0DDFB002110
:4007C000012001F0D9FB2B21012001F0D5FB2821012001F0D1FB0021012001F0CDFB0021012001F0C9FB0021012001F0C5FBB621002001F0C1FB0121084601F0BDFB1D21DE
:40080000012001F0B9FB0021012001F0B5FB0C21012001F0B1FB0921012001F0ADFB0021012001F0A9FB0021012001F0A5FB2A21002001F0A1FB0021012001F09DFB0021B2
:40084000012001F099FB0121084601F095FBDF21012001F091FB2B21002001F08DFB0021012001F089FB0021012001F085FB0121084601F081FB0F21012001F07DFB132129
:40088000002001F079FB3821002001F075FB2921002001F071FB4FF488734FF4F07208490848FFF7EFFB08490120FFF7DBFE07490020FFF7D7FE06490320FFF7D3FE10BD2C
:4008C00031090000C081FF1F790900001D0A0000850A000030B583B015461C46030A8DF804308DF805000B0A8DF806308DF807102A21002001F040FB04220DEB02010120BD
:4009000001F048FB2B0A8DF804308DF80550230A8DF806308DF807402B21002001F02CFB04220DEB0201012001F034FB03B030BD00B583B0130C8DF80430130A8DF80530EA
:400940008DF8062083B2B3F5F07F12D2002910DBB1F5887F0DDA0A464B1C411CFFF7BAFF2C21002001F008FB032201A9012001F011FB03B05DF804FB2DE9F04182B0089CBF
:40098000250C8DF80450250A8DF805508DF8064086B2B6F5F07F2DD200292EDBB1F5887F2EDA94B2B4F5F07F2DD2002B2EDBB3F5887F2EDA1D4690460F460A464146FFF77E
:4009C00089FF2C21002001F0D7FA0DE0BCB206E0032201A9012001F0DDFA0134A4B2681C8442F5DB0136B6B208F101039E42EDDB002010E04FF0FF300DE04FF0FF300AE09B
:400A00004FF0FF3007E04FF0FF3004E04FF0FF3001E04FF0FF3002B0BDE8F08110B582B084B2B4F5F07F17D2002918DBB1F5887F18DA94B2B4F5F07F17D2002B18DBB3F594
:400A4000887F18DA904201D0994217D1049C0094FFF792FF002013E04FF0FF3010E04FF0FF300DE04FF0FF300AE04FF0FF3007E04FF0FF3004E04FF0FF3001E04FF0FF30D4
:400A800002B010BD38B5BDF8144085B2B5F5F07F1FD2002920DBB1F5887F20DA95B2B5F5F07F1FD2002B20DBB3F5887F20DA15460A462946FFF70EFF2C21002001F05CFAC4
:400AC00004EB440292B20499012001F063FA002038BD4FF0FF3038BD4FF0FF3038BD4FF0FF3038BD4FF0FF3038BD4FF0FF3038BD4FF0FF3038BD00BF00B583B06FF07F4045
:400B0000FFF73EFB4FF47F0300930A231A4600210846FFF7FDFAFF2300934FF488730A224FF483710020FFF7F3FA4FF47F4300930A234FF4F07200214FF4EB70FFF7E8FAEB
:400B4000094B00934FF488734FF4F0724FF483714FF4EB70FFF7DCFA4FF4967001F04AFA03B05DF804FB00BF00FFFF0008B50020FFF706FB084A0A214420FFF7E9FC074AE7
:400B80000A2140F22910FFF7E3FC054AE1212320FFF7DEFC08BD00BF44F3010050F301005CF301002DE9F04F85B005460E46174698469DF838909DF83C3003EB830294004D
:400BC0000C34632803D8092803D9032102E0042100E0022106EB080204FB01F46410C4EB620407EB09025210053AC3EB0371C3EB011102EB010A012B02D13F48FFF77AFA34
:400C0000642D1AD13D4B1B68B3F57F4F0AD04FF47F4500954B46424639463046FFF778FA364B1D604FF47F4300930023344A0FFA8AF120B2FFF7D0FC57E02A46314903A8B0
:400C400001F092FE092D2AD94B2D05D8322D06D8192D06D92C4D06E04FF47F4503E02B4D01E04FF47F0525238DF80E3000238DF80F30224B1B689D4208D000954B46424653
:400C800039463046FFF744FA1C4B1D600095002303AA0FFA8AF120B2FFF79EFC25E025238DF80D3000258DF80E5036B23FB20FFA88F80FFA89F900954B4642463946304635
:400CC000FFF726FA4FF47F0BCDF800B04B46424639463046FFF71CFACDF800B02B4603AA0FFA8AF120B2FFF777FC0948FFF702FA05B0BDE8F08F00BFA43200003C82FF1FA3
:400D000080F3010088F3010000A5FF0000FFFF00E03200002DE9F04F89B00746884691469A469DF848B09DF84C2002EB82018B000C3308EB0A0403EB43035B10C3EB640431
:400D400009EB0B056D106B1FC2EB0275C2EB05151D44012A02D12648FFF7CCF92C2F1DD9312F1ED9362F1ED90FFA88F00FFA89F10FFA8AF20FFA8BF30026009605930492F7
:400D800003910290FFF7C4F94FF47F060096059B049A03990298FFF7BBF905E04FF47F4602E0144E00E0144E144B1B689E4208D000965B46524649464046FFF7A9F90F4BFB
:400DC0001E603A460E4907A801F0CEFD43238DF81E3000238DF81F30009607AA29B220B2FFF7FAFB0748FFF785F909B0BDE8F08FA432000000FFFF0000A5FF004C82FF1F20
:400E000088F30100E03200002DE9F04F83B004460D4616461F469DF830809DF8342002EB82018B000C3305EB070903EB830359004910C1EB690906EB08035B10053BC2EB3E
:400E40000271C2EB011103EB010A012A02D19D48FFF750F914F0800F00F0E78004F07F04072C00F22981DFE804F0041E3A56728EAAC4954B1A68954B9A4209D01C4600932E
:400E800043463A4631462846FFF742F98E4B1C608E4B009300238E4A0FFA8AF10FFA89F0FFF79AFB08E1884B1B68B3F57F0F0AD04FF47F04009443463A4631462846FFF739
:400EC00027F9814B1C604FF47F0300930023814A0FFA8AF10FFA89F0FFF77EFBECE07A4B1B68B3F57F0F0AD04FF47F04009443463A4631462846FFF70BF9734B1C604FF4EC
:400F00007F0300930023744A0FFA8AF10FFA89F0FFF762FBD0E06C4B1B68B3F57F0F0AD04FF47F04009443463A4631462846FFF7EFF8654B1C604FF47F0300930023674AEB
:400F40000FFA8AF10FFA89F0FFF746FBB4E05E4B1B68B3F57F0F0AD04FF47F04009443463A4631462846FFF7D3F8574B1C604FF47F03009300235A4A0FFA8AF10FFA89F018
:400F8000FFF72AFB98E0504B1B68B3F57F0F0AD04FF47F04009443463A4631462846FFF7B7F8494B1C604FF47F03009300234D4A0FFA8AF10FFA89F0FFF70EFB7CE0424B73
:400FC0001A68424B9A4209D01C46009343463A4631462846FFF79CF83B4B1C603B4B00930023414A0FFA8AF10FFA89F0FFF7F4FA62E0354B1B68B3F57F0F0AD04FF47F04F2
:40100000009443463A4631462846FFF781F82E4B1C604FF47F0300930023344A0FFA8AF10FFA89F0FFF7D8FA46E0274B1B68B3F57F4F0CD04FF47F4BCDF800B043463A460B
:4010400031462846FFF764F81F4BC3F800B0032C32D8DFE804F0020E1A264FF47F4300930023234A0FFA8AF10FFA89F0FFF7B4FA22E04FF47F43009300231E4A0FFA8AF1A5
:401080000FFA89F0FFF7A8FA16E04FF47F4300930023194A0FFA8AF10FFA89F0FFF79CFA0AE04FF47F4300930023144A0FFA8AF10FFA89F0FFF790FA1148FFF71BF803B0D2
:4010C000BDE8F08FA43200004482FF1F00FFFF008CF3010098F30100A4F30100B0F30100BCF30100C8F30100D4F30100E0F30100ECF30100F8F3010004F4010010F40100FA
:40110000E032000008B5072854D8DFE800F0040E18222C36404A002000F00CFF002000F0FDFE002000F0EEFE08BD002000F002FF012000F0F3FE012000F0E4FE08BD0020C4
:4011400000F0F8FE012000F0E9FE002000F0DAFE08BD012000F0EEFE012000F0DFFE002000F0D0FE08BD012000F0E4FE002000F0D5FE002000F0C6FE08BD012000F0DAFEFE
:40118000002000F0CBFE012000F0BCFE08BD002000F0D0FE002000F0C1FE012000F0B2FE08BD012000F0C6FE012000F0B7FE012000F0A8FE08BD00BF38B50546002406E07B
:4011C000E0B2FFF79FFF284600F014FF0134072CF6DD38BD70B582B0012000F0F1FE00F0BFFEFFF74DFA5B48FEF784FF0020FEF7E3FF6FF07F40FEF7D9FFFFF77DFC62B663
:4012000000F0F8FA00F000FDC820FFF7D5FF01F00FF9FFF7ABFC504B5B780193D7230093F023B9225F218020FFF7EEFD4A4B5B68642B08D900231A461946184600F0B8F871
:401240008022454B1A72444B5B899BB243B1424B1B7A13F0FF0F03D03F4B80221A725B8900F040FE28B13C4A137B43F00203137304E0394A137B03F0FD03137300F03AFEEB
:4012800028B1354A137B43F00103137304E0324A137B03F0FE0313732F4C207B00F080F8607BC0F3001001F07FFA607BC0F3401001F06EFA01F032F901F01EF9FFF756FCFA
:4012C000A07B264D2B780193AA260096D22323221E21FFF767FCE07B2B7801930096C22323220E21FFF716FD207A2B7801930E2300939023BE225021FFF786FD237ADBB22B
:40130000032B0BD16B68022B08D1012000F0DEFD01F0CCFA01F08CFA01F052FA0E4A137ADBB20E494B60137ADBB2032B02D0002000F0CCFD084B1B7A13F0FF0F3FF476AFBB
:40134000012000F0DFFD012000F0E8FD012000F0F1FD6BE7E03200007881FF1FCC80FF1F00B587B0039100238DF810308DF8113008228DF812208DF8133001AA059206E0A7
:40138000C15C06AA1A4402F8141C0133DBB2072BF6D903A800F094FC07B05DF804FB00BF08B5024BD87200F0F9FC08BD20A0004000B583B08DF800008DF801108DF8022079
:4013C00000228DF803208DF804308DF805208DF806208DF8072040F266716846FFF7C0FF012000F007FE03B05DF804FBFEE700BFF0B40022174611E050F82760F3B226F09E
:40140000FF0608E001EB420511F812406D78A5550132013BDBB2002BF4D101371B2FEBD9F0BC70470A4B1B78DBB203F00701094A11701B09013213700422074B1A7040233A
:40144000064A1370583213706622054B1A707047CF0100496E5800403D510040005B00407658004008B50A46002101F074FA08BD08B501F065FA08BD38B500242E4B1C8093
:40148000502202331A7002331C80582202331A7004222A492A48FFF7EBFF0622294B1A705222A3F580731A70274B1B78DBB2274A13704FF4E162264B1A8041F25122023B5D
:4014C0001A8019250CE0234B1B7803F0010343EA440404F003044FF4F07001F0F5F9013D0DB1032CEFD115B90320FFF77FFF1A4A4FF48073138007231370002317490B7016
:401500004820023108701370053213700222144B1A7004220A331A70124A137843F003031370013A137843F001031370013A137843F08003137038BD804000400C040048F2
:4015400000410040004300400F010049A14600402242004025420040044000400640004001400040A2430040012807D8044B53F820201844017A13780B431370704700BF61
:401580001CF40100012808D8044B53F820201844017A137823EA0103137070471CF4010038B572B63E4A137843F00403137000240BE03C4863001A19510001440A46098AF2
:4015C000D068FFF74FFF0134E4B2072CF1D900240BE03449A3001819420088188022016CC06BFFF745FF0134E4B2002CF1D02E494FF09040FFF7FCFE0A242C4B1C702C4A1C
:40160000137843F0020313701032137843F002031370284D2B7843F040032B70A2F58632513A137843F010031370082222492348FFF71EFF082222492248FFF719FF08223B
:4016400021492248FFF714FF224621492148FFF70FFF224620492148FFF70AFF082220492048FFF705FF22461F492048FFF700FF1F4A137843F0080313701E4C61232370BD
:40168000FFF7FAFE8123237001221B4B1A70FFF7C9FE0E2229461948FFF7EAFE38BD00BFE84600401CF40100700000488358004003500140A0430040C803004802510040F4
:4016C000D0030048C2510040D803004812510040E003004820510040EC03004830510040F8030048425100400004004850510040224300400048004004000840B0430040F3
:4017000008B501F0F1F803680C2B00D1FEE7FEE708B5094B1A681044084BC31A802B02DC054B186005E001F0DFF80C2303604FF0FF32104608BD00BFD480FF1F5882FF1F7A
:4017400008B5104E104D16E029686B68AC68002204E051F8040B43F8040B0432A242F8D1E868002203E0002143F8041B04328242F9D11035013E002EE6D101F0BBF8FFF761
:4017800029FDFEE70100000020F6010008B5104A104B1A60104A136843F40073136000230AE0032B03D80D4A52F8231000E00C490C4A42F8231001332F2BF2D90A4B1A7806
:4017C0000A4B1A70074A0A4B1A60FFF7E9FE08BD0004FA050CED00E014ED00E000000000011700000080FF1FBC760040C080FF1F08ED00E0064B1A7842F001021A701B78FB
:4018000013F0010F01D1012070470020704700BF04A0004008B501F05FF8154A137843F0010313701032137843F00103137001F057F841F201020F4B1A60FFF7DBFF4FF4E4
:4018400080320D4B1A600D4A136843F00103136040F6E80300E0013B23B1084A126812F0010FF8D00BB9012008BD002008BD00BFA643004000A0004000E100E010A00040A9
:4018800010F4004F07D1064B18801B889BB2984203D001207047022070470020704700BF16A0004050B90D4B5A7802F0EF025A705B7813F0100F0CD001207047074B5A788D
:4018C00042F010025A705B7813F0100F03D101207047002070470020704700BF14A0004030B4841EE4B20D2C28D88C1EE4B2052C02D92BBB012925D1032A25D8904225D33D
:40190000914225D3164D6C7804F0F004204368706C78E4B2A0421DD10BB9002000E002204B01DBB29200D2B2134303430C4A13701278D2B293420FD001200EE002200CE0FF
:4019400002200AE0022008E0022006E0022004E0022002E0012000E0002030BC704700BF14A0004050B90D4B1A7802F0EF021A701B7813F0100F0CD001207047074B1A781B
:4019800042F010021A701B7813F0100F03D101207047002070470020704700BF14A0004050B90D4B1A7802F0FE021A701B7813F0010F0CD001207047074B1A7842F00102B5
:4019C0001A701B7813F0010F03D101207047002070470020704700BF14A00040044B18801B889BB2984201D0012070470020704704A0004003785B01214A416841F08011E8
:401A0000995003785B0199189A5802F07F12436823F080139A4228D183680B610278184B03EB421319698268914220D1C2685A610278134B03EB42135969C268914218D14B
:401A40004FF0FF329A6102780D4B03EB42139A69B2F1FF3F0FD10022DA610278084B03EB4213DB694BB101207047012070470120704701207047012070470020704700BFA7
:401A8000A0A0004001780901114A436843F4000343F008038B5003781B0199189B580D4A1A40436823F4000323F008039A420BD183684B600278064B03EB02135A68836832
:401AC0009A4203D001207047012070470020704720A00040F7007F0038B5002409E004EB440293000E481844FFF7CCFF28B90134E4B2072CF3D9002500E001254DB10DE044
:401B0000084800EB0410FFF775FF30B90134E4B200E000240F2CF3D900E00125284638BD64F40100C4F4010008B500F0D5FE324A137843F0010313701032137843F001036D
:401B4000137000F0CDFE2D4A137803F0FE03137047F2C06300E0013B23B1284A127812F0010FF8D1002B3CD04FF48032244B1A602449102000F05EFA0721102000F06EFAE1
:401B80001220FFF77DFE88B9FFF78CFE80B90023032211460420FFF7A3FE58B9FFF7E2FE50B9FFF7FDFE48B1012308E0012306E0012304E0012302E0012300E0002393B9BD
:401BC000FFF78AFF88B941F20100FFF707FF70B90A4B00221A701B7813F0010F09D0012008BD012008BD012008BD012008BD012008BD002008BD00BFA643004010A0004011
:401C000080E100E0A91C000008B5074B1B7813B9FFF78AFF00E0002020B90122024B1A70FFF7F8FD08BD00BFAA81FF1F38B510221A4B5A70012500242CE0194B1B881D421C
:401C400024D06301174A9B5C13F0200F1ED015F03F0F18D0052C19D8DFE804F00306090C0F1200F0B9F811E000F0C4F80EE000F0DBF80BE000F0E6F808E000F0F9F805E0E7
:401C800000F00AF902E0204600F098F86D00ADB20134E4B20F2CD0D938BD00BF00A0004008A00040A0A0004008B5044B5B7813F0100F01D0FFF7BAFF08BD00BF00A000400D
:401CC000F0B5012100265DE017F0010F4DD12F4B9B783B4249D103790BB14FF40013417931B92B4901EB0211046864054C6007E043F48013264901EB02110468E4004C6020
:401D000090F806E0BEF1070F02D843EA0E4E01E043F4002EC3790BB14EF0040E00230FE01B4901EB0214032B02D9C3F10B0101E0C3F103018568ED5C21440D720133DBB2CA
:401D400081798B4201D2072BEAD94FF48034114B1C6011010E4D4EF4000343F008034B5101234B510C4B1C6000217B00DFB231B10132D2B201E001270022072AA4D919B17D
:401D80000136F6B2022EF6D90846F0BD08A0004020A0004080E100E000E100E0064B1B7813F0010F06D1044A136843F001031360002070470120704720A000404001054BDF
:401DC000C25C12F0010F03D0C25C42F00102C254704700BFA0A00040044BDA7BD2B204490A701A7842F001021A707047A0A000408081FF1F094B9A7AD2B209490A705A7A5F
:401E0000120208490A80187A0A8892B202430A801A7842F001021A70704700BFC0A000408681FF1F8281FF1F044B1A7BD2B204490A701A7842F001021A707047E0A00040D8
:401E40008781FF1F0749CB7B1B02074A1380897B13889BB20B431380044A137843F001031370704720A100408881FF1F00A10040074A537B1B0207490B80107B0B889BB203
:401E800003449BB20B80137843F001031370704720A100408A81FF1F094BDA7A120209490A80987A0A8892B202430A805A7AD2B205490A701A7842F001021A70704700BFA7
:401EC00040A10040A881FF1F8581FF1F044A137803F0FE0300F0010018431070704700BF50510040024B1878C0F34000704700BF31510040024B187800F00100704700BF1A
:401F000031510040044A137803F0EF03000100F0100018431070704720510040044A137803F0F703C00000F0080018431070704720510040044A137803F0FB03800000F0E2
:401F40000400184310707047205100400822034B1A70092210331A70704700BF2264004008B5044B1B7823B9FFF7F0FF0122014B1A7008BDAB81FF1F044B1B7813F0010F87
:401F8000FAD1034B1870103319707047636400404264004030B400240AE0074B1B7813F0010FFAD1054B18700D5D10331D7001349442F2D330BC70476364004042640040E9
:401FC000044A137803F07F03C001C0B218431070704700BF40510040044A137803F0FE0300F0010018431070704700BFC051004001BE704710B5044605E0084B186800F0B1
:4020000063FCA4F50044B4F5004FF6D8034B586800FB04F000F058FC10BD00BFD880FF1F08B5034B1B7A00FB03F000F04DFC08BDD880FF1F70B504460E46074B1D681F2878
:4020400002D90020FFF7D4FF04F01F04103455F8240045F8246070BD08ED00E038B504460D46072902D90020FFF7C2FF1F2C02D90020FFF7BDFF04F01F0000F1604000F510
:4020800064406D01EDB2057038BD00BF10B59DF80840012C51D1013809282ED8DFE800F0052D2D052D2D0F192D230F2B03D92548007840B222E02448007840B21EE00F2BFB
:4020C00003D92248007840B218E02148007840B214E00F2B03D91F48007840B20EE01E48007840B20AE00F2B03D91C48007840B204E01B48007840B200E0002001EB401110
:4021000001FB02F1C90B8AB20D2B0BD8C3F10E0289B211418AB2611E124800EB810101338B7005E0631E0F4901EB83030F219970013C0C4B23F8242010BD0020FFF758FFED
:4021400010BD00BF180100491C010049190100491D0100491A0100491E0100491B0100491F010049AC81FF1FF8B5074600F0B4FB06460D4D2B7843F003032B700B4C2378B4
:4021800043F0030323700A4B1F700320FFF748FF2B7803F0FC032B70237803F0FC032370304600F09DFBF8BDF8460040F9460040925800400022324B1A7101285FD170B53D
:4021C0003822304B1A70042202331A70062201331A70002401331C7001331C703F2201331A7002331C7001331C7001331C7001250A331D70502203F527631A7007220133E6
:402200001A70292201331A7001331C70552203331A705A2201331A7001331C7002331D70112201331A70192201331A70972201331A704420FFF798FF5822134B1A70013370
:402240001C70052605331E70022201331A7001331C7001331C70204600F00AFA42F6AB120A4B1A602946304600F026FA2946252000F082F906491D20FFF7DCFE70BD70470D
:40228000AC81FF1F004E0040945800405082FF1F45250000F0B583B0284D01272F70284E00247471102000F0F5F9102000F052F907211D20FFF7D2FE0422224B1A70013337
:4022C0001C7007331C70204A137843F0180313701E4B1C7003F2F5231C7001331C700A22A3F209331A7001331C7002331C705B2205331A705E2201331A7004331C701422FA
:40230000A3F68C231A70009710234FF4004247F602710320FFF7BAFE2B78013B06EB83039A780B4B1A702B78013B36F82320094B1A802878FFF73EFF03B0F0BDE880FF1FBC
:40234000AC81FF1F96580040075B0040935800400E4E00400C4E004070B500F0BDFA06462A4B1B782A4B1A7842F001021A701A7842F010021A7010331A7842F001021A7007
:402380001A7842F010021A70224D2B7843F002032B70214C237843F0020323701F4A137843F0030313700320FFF73AFE2B7803F0FD032B70237803F0FD032370184A1378C5
:4023C00043F0060313707A22164B1A70164A137843F0010313701032137843F0010313700F3A137843F0010313701032137843F0010313704FF000530C4A1360A2F5C07232
:402400001360304600F06CFA70BD00BFE880FF1FAA430040F8460040F9460040915800407758004082580040A143004080E200E008B5084B9B794BB9064BDB7913F0FF0F2B
:4024400001D1FFF727FF0122024B9A71FFF784FF08BD00BFAC81FF1F024A137843F0010313707047004E0040024A137803F0FE0313707047004E0040094B1B7913F0FF0F49
:4024800003D0074B5B79DBB203E0064B1B7803F00103012B01D00028EED01846704700BFAC81FF1F014E00400E4B1B7803F00303012B03D80C4B188880B209E00A4A12786B
:4024C0000A49087842EA0020032B01D1084B1B78084B1B7913F0FF0F02D00022054B5A7100B27047144E0040104E0040114E0040124E0040AC81FF1F064B9B68C01A4FF42C
:402500007A7303FB00F0044B1B6890FBF3F000B2704700BFAC81FF1F5082FF1F10B5084A137843F004031370FFF796FF0020FFF7A3FFFFF7B9FF0446FFF796FF204610BDC5
:40254000014E0040704700BF014B188880B2704700410040034B1A7800F0F80010431870704700BF02410040024B187800F00700704700BF0241004070B505460E46FFF7DD
:40258000F3FF0446FFF7E0FFA84256D02B4B1B7803F0010294B900B185B938B9284B1D80284A137803F0BF03137070BD254A137843F040031370224B1D8070BD22B300233A
:4025C00021490B70012413310C7004390B7008390B7803F07F030B701A4B1B7813F0080F00D08DB9194B18800721013B1970164B1B7813F0010FFAD110490B7803F0FE03F2
:402600000B700021104B19700C4B1B7813F0010F0DD00E4B1D800EB1032200E001220A4B1A70094B1B7813F0010FFAD170BD044B1D8002490B7813430B7070BDA1430040B6
:402640000041004002410040014000400240004010B5002404E02046FEF794FF0134E4B2012CF8D9FF22014B1A7010BDE980FF1F10B50446FFF7ECFF2046FEF775FF014B79
:402680001C7010BDE980FF1F014B188880B2704780400040034B1A7800F0F80010431870704700BF82400040024B187800F00700704700BF8240004070B505460E46FFF744
:4026C000F3FF0446FFF7E0FFA84256D02B4B1B7803F0010294B900B185B938B9284B1D80284A137803F0BF03137070BD254A137843F040031370224B1D8070BD22B30023F9
:4027000021490B7001240F310C7004310B700C390B7803F07F030B701A4B1B7813F0080F00D08DB9194B18800721013B1970164B1B7813F0010FFAD110490B7803F0FE03B8
:402740000B700021104B19700C4B1B7813F0010F0DD00E4B1D800EB1032200E001220A4B1A70094B1B7813F0010FFAD170BD044B1D8002490B7813430B7070BDA243004074
:4027800080400040824000400140004002400040044A137803F0FD03400000F0020018431070704750510040044A137803F0F703C00000F0080018431070704730510040D2
:4027C000024A137843F080031370704779640040024A137803F07F031370704779640040014B1870704700BF8B640040014B1878704700BF6B640040014B1860704700BF3E
:4028000028640040014B1868704700BF48640040014B1860704700BF0864004008B501E0FFF7F0FFFFF7E2FF10F0080FF8D108BD10B50B4C2046FFF7DFFF2046FFF7E8FF20
:4028400000F04AF8074A137843F01003137000F047F8FFF7E3FF0120FFF7C2FF10BD00BFFF6BDC029B64004008B50020FFF72EFBFFF7AEFF08BD00BF014B1B68186470476A
:4028800008ED00E04001C0B2014B1870704700BF00E400E00122014B1A60704700E100E00122014B1A60704780E100E008B5FFF7F7FF0448FFF7E0FF0720FFF7E3FFFFF781
:4028C000E9FF08BD692800000230800803D000BF01380046FCD17047EFF3108072B6704780F31088704700BF014B1868704700BF4C81FF1F0E4B70B51E460E4C0025E41AED
:40290000A410A54204D056F8253098470135F8E71CF074FE084B094C1E46E41AA4100025A54204D056F8253098470135F8E770BD08F6010008F6010008F6010010F60100AD
:4029400010B5431E0A44914204D011F8014B03F8014FF8E710BD03460244934202D003F8011BFAE7704700000EB400B54FF402719CB0ADF814106FF00041049107914FF6B7
:40298000FF711DAB02900690084853F8042BADF81610006802A9019300F064F8029B00221A701CB05DF804EB03B070474C81FF1F2DE9F0478E6882469E420C46914698468F
:4029C0003ED88A8912F4906F3AD02568096902236F1A656905EB450595FBF3F57B1C43449D4238BF1D4653050FD5294600F040FB064698B13A462169FFF7A2FFA38923F4CC
:402A0000906343F08003A38113E02A4600F08EFB064670B92169504600F0DEFA0C23CAF80030A3894FF0FF3043F04003A381BDE8F08726613E44266046466561ED1BA56031
:402A4000464528BF464649463246206800F0A8FAA36800209B1BA36023681E442660BDE8F08700002DE9F04F9DB003938B8980461C060D4616460DD50B695BB9402100F026
:402A8000F7FA2860286118B90C23C8F80030CDE040236B610023099320238DF82930DFF89CB130238DF82A3037463C4614F8013B1BB9B7EB060910D003E0252BF9D02746FD
:402AC000F3E74B46324629464046FFF771FF013000F0A780099B4B4409933B78002B00F0A08000234FF0FF3204930793059206938DF853301A930126052221784E4800F07D
:402B000041FA671C049B38B14B4A3C46801A06FA00F018430490EFE7D90644BF20228DF853201A0744BF2B228DF8532022782A2A03D0079A00210A200BE0039A111D126887
:402B40000391002A10DA524243F00200079204900BE027463B780134303B092B03D800FB02320121F5E701B107923B782E2B1ED17B782A2B0AD1039B02371A1D1B68039241
:402B8000002BB8BF4FF0FF33059310E0002319460593781C0A2407463A780130303A092A03D804FB01210123F5E703B1059103223978224800F0E6F940B14023CBEB000072
:402BC00003FA00F0049B013718430490397806221B487E1C8DF8281000F0D4F988B1194B33B9039B073323F007030833039314E003AB00932A46144B04A94046AFF300802A
:402C000007E003AB00932A460F4B04A9404600F093F8B0F1FF3F824603D0099B5344099342E7AB895B0601D4099801E04FF0FF301DB0BDE8F08F00BFC6F50100CCF50100F2
:402C4000D0F5010000000000B12900002DE9F04791461F460A698B6806469342B8BF1346C9F8003091F843200C46DDF8208012B10133C9F800302368990642BFD9F800301C
:402C80000233C9F80030256815F0060510D104F1190A07E00123524639463046C04701301AD00135E368D9F800209B1A9D42F1DB94F843302268003318BF012392060FD599
:402CC000E118302081F843005A1C94F845102244023382F8431003E04FF0FF30BDE8F08704F1430239463046C0470130F4D02268D9F80050E36802F00602042A08BF5D1B1B
:402D00002269A3680CBF25EAE57500259342C4BF9B1AED184FF000091A344D4509D00123224639463046C0470130D5D009F10109F3E70020BDE8F0872DE9F04317460A7EEB
:402D400085B06E2A984606460C460C9B01F1430E00F0AE8011D8632A22D009D8002A00F0BB80582A40F0CA8081F84520834955E0642A1ED0692A1CD0C0E0732A00F0B08031
:402D800009D86F2A2ED0702A40F0B8800A6842F020020A603EE0752A24D0782A3AD0ADE01A6801F14205111D1960136884F84230A8E021681A6811F0800F02D0111D196018
:402DC00008E011F0400F02F10401196002D0B2F9003000E01368002B3CDA2D225B4284F8432037E021681A6811F0800F02D0111D196007E011F0400F02F10401196001D072
:402E0000138800E01368227E5C496F2A14BF0A2208221BE078225A4984F845202268186812F0800F00F104051D6003D1550601D5038800E00368D00744BF42F020022260DF
:402E40001BB9226822F0200222601022002084F8430001E049490A226568002DA56008DB206820F0040020602BB9002D7DD175460CE0002B79D07546B3FBF2F002FB10338B
:402E8000CB5C05F8013D03460028F5D1082A0BD12368DA0708D5236962689A42DEBF302305F8013C05F1FF35C5EB0E0323612EE008681A6810F0800F496903D0101D18609E
:402EC000136808E010F0400F02F104001860136801D0198000E0196000232361754616E01A68111D1960156800216268284600F049F808B1401B6060636804E004F142052C
:402F000084F8422001232361002384F84330CDF800803B4603AA21463046FFF797FE013002D14FF0FF3026E023692A4639463046C0470130F5D023689B0710D5002504F18C
:402F4000190907E001234A4639463046C0470130E7D00135E368039A9B1A9D42F2DBE068039B9842B8BF184605E00B7804F1420584F842308AE705B0BDE8F083D7F50100FF
:402F8000E8F5010010B5C9B202449042034605D01C7801308C42F8D1184610BD002010BD884210B501EB020301D8421E0BE09842FBD28118D21AD34204D013F8014D01F83E
:402FC000014DF8E710BD994204D011F8014B02F8014FF8E710BD000038B50546002944D051F8043C0C1F002BB8BFE41800F0D4F81E4A1368114613B96360146030E0A34228
:403000000DD92268A018834201BF18685B681218226063600C6023E0A24203D813465A68002AF9D118681918A1420BD12168014458188242196013D1106852680144196035
:403040005A600DE002D90C232B6009E021686018824201BF106852680918216062605C602846BDE8384000F098B838BDBC81FF1F70B5CD1C25F0030508350C2D38BF0C2570
:40308000002D064601DBA94202D90C23336046E000F082F8234B1C681A462146A1B10B685B1B0ED40B2B03D90B60CC18CD501EE08C420BBF63684B681360636018BF0C46DC
:4030C00015E00C464968E9E7174C23681BB9304600F052F820602946304600F04DF8431C18D0C41C24F00304A0420DD12560304600F053F804F10B00231D20F00700C31A90
:403100000ED05A42E25070BD211A304600F034F80130EBD10C233360304600F03EF8002070BD00BFBC81FF1FB881FF1FF8B5074615460E4621B91146BDE8F840FFF798BFDC
:403140001AB9FFF749FF2846F8BD00F027F885420ED929463846FFF78BFF044650B131462A46FFF7EDFB31463846FFF735FF01E03046F8BD2046F8BD38B5064C00230546EE
:4031800008462360FEF7C4FA431C02D1236803B12B6038BD5482FF1F7047704751F8040C0028BEBF091851F8043CC018043870470000000064646400646464006464640041
:4031C00064646400A0A0A000A0A0A000A0A0A000A0A0A000F0F0F000F0F0F000F0F0F000F0F0F00064646400646464006464640064646400FFFFFF00FFFFFF0069696900FE
:4032000069696900E3E3E300E3E3E300A0A0A000A0A0A00064646400646464006464640064646400A0A0A000A0A0A000A0A0A000A0A0A000F0F0F000F0F0F000F0F0F000A1
:40324000F0F0F00064646400646464006464640064646400FFFFFF00FFFFFF006969690069696900E3E3E300E3E3E300A0A0A000A0A0A000646464006464640064646400C8
:4032800064646400FFFFFF00FFFFFF006969690069696900E3E3E300E3E3E300A0A0A000A0A0A000443300000000200035000000FF00000000000000440701000000160033
:4032C00024000000FF0000000000000044730100000010001A000000FF0000000000000044A7010000000C0010000000FF0000000000000044C70100000008000E000000A1
:40330000FF0000000000000044D50100000008000C000000FF0000000000000044E10100000006000A000000FF0000000000000044EB01000000050008000000FF000000F0
:40334000000000000000000000000000000000000000000000000000000000000000000000000000000000000000000000000000000000000000000000000000000000004D
:40338000000000000000000000000000000000000000000000000000000000000000000000000000000000000000000000000000000000000000000000000000000000000D
:4033C00000000000000000000000000000000000000000000000000000000000000000000000000000000000000000000000000000000000000000000000000000000000CD
:40340000000000000000000000000000000000000000000000000000000000000000000000000000000000000000000000000000000000000000000000000000000000008C
:403440000000000000000000000000000000000000F00F0000FC3F0000FFFF00801FF801C003C003E0018007F000000F7000000E381C381C383E7C1C3C3E7C3C1C3E7C381B
:403480001C1C38381C0000381C0000381C0000381C03C0383C03C03C3807E01C381E781C70FC3F0EF0F81F0FE0E18707C003C003801FF80100FFFF0000FC3F0000F00F007D
:4034C00000000000000000000000000000000000000000000000000000000000000000000000000000000000000000000000000000000000000000000000000000000000CC
:4035000000000000000000000000000000000000000000000000000000000000000000000000000000F00F0000FC3F0000FFFF0080FFFF01C0FFFF03E0FFFF07F0FFFF0F31
:40354000F0FFFF0FF8E3C71FF8C1831FFCC1833FFCC1833FFCE3C73FFCFFFF3FFCFFFF3FFCFFFF3FFCFC3F3FFCFC3F3FF8F81F1FF8E1871FF003C00FF007E00FE01FF80765
:40358000C0FFFF0380FFFF0100FFFF0000FC3F0000F00F00000000000000000000000000000000000000000000000000000000000000000000000000000000000000000093
:4035C00000000000000000000000000000000000C007E003F01FF80FF03FFC0FF87FFE1FFC7FFE3FFCFFFF3FFCFFFF3FFEFFFF7FFEFFFF7FFEFFFF7FFEFFFF7FFEFFFF7FAC
:40360000FEFFFF7FFEFFFF7FFEFFFF7FFEFFFF7FFCFFFF3FFCFFFF3FFCFFFF3FF8FFFF1FF8FFFF1FF8FFFF1FF0FFFF0FF0FFFF0FE0FFFF07C0FFFF03C0FFFF0380FFFF01D4
:4036400080FFFF0100FFFF0000FE7F0000FC3F0000FC3F0000F81F0000F00F0000E0070000C003000080010000000000000000000000000000000000000000000000000099
:40368000000000000000000000000000000000000000000000000000000000000000000000000000008000000080000000C0010000E0030000E0030000F0070000F80F0085
:4036C00000F81F0000FC1F0000FE3F0000FF7F0000FFFF0080FFFF01C0FFFF03E0FFFF07F0FFFF0FF8FFFF1FFCFFFF3FFEFFFF7FFCFFFF3FF8FFFF1FF0FFFF0FE0FFFF07C4
:40370000C0FFFF03C0FFFF0180FFFF0000FF7F0000FE7F0000FC3F0000FC1F0000F80F0000F00F0000F0070000E0030000E0030000C00100008000000080000000000000B6
:40374000000000000000000000000000000000000000000000000000000000000000000000000000000000000000000000000000000000000000000000E0070000F00F0063
:4037800000F81F0000FC3F0000FE7F0000FE7F0000FE7F0000FE7F0000FE7F0000FE7F0000FC3F0000FC3F0000F81F00E0FBDF07F8FFFF1FF8FFFF1FFCFFFF3FFEFFFF7F9D
:4037C000FEFFFF7FFEFFFF7FFEFFFF7FFEFFFF7FFEFFFF7FFCBFFF3FFCFFFF3FF8DFFB1FF0CFF30FE0C3C30700C0030000E0070000E0070000E0070000E0070000E00700CB
:4038000000E0070000F00F0000F00F0000F00F00000000000000000000000000000000000000000000000000000000000000000000000000000000000000000000000000A4
:40384000000000000000000000000000008000000080010000C0010000E0030000E0070000F0070000F80F0000FC1F0000FC3F0000FE7F0000FFFF0080FFFF00C0FFFF01B0
:40388000E0FFFF03F0FFFF07F0FFFF0FF8FFFF1FFCFFFF3FFCFFFF3FFEFFFF7FFEFFFF7FFEFFFF7FFEFFFF7FFEFFFF7FFEFFFF7FFCFFFF3FF8DFFB1FF0CFF30FE0C3C30774
:4038C00000C0030000E0070000E0070000E0070000E0070000E0070000F00F0000F00F0000F00F000000000000000000000000000000000000000000000000000000000085
:403900000000000000000000000000000000000000000000000000000000000000000000000000000000000000000000000000000000000000000000000000000000000087
:403940000000000000000000000000000000000000000000000000000000000000000000000000000000000000000000000000000000000000000000000000000000000047
:403980000000000000000000000000000000000000000000000000000000000000000000000000000000000000000000000000000000000000000000000000000000000007
:4039C00000000000000000000000000000000000000000000000000000000000000000000000000000000000000000000000000000000000000000000000000000000000C7
:403A00000000000000000000000000000000000000000000000000000000000000000000000000000000000000000000000000000000000000000000000000000000000086
:403A40000000000000000000000000000000000000000000000000000000000000000000000000000000000000000000000000000000000000000000000000000000000046
:403A80000000000000000000000000000000000000000000000000000000000000000000000000000000000000000000000000000000000000000000000000000000000006
:403AC00000000000000000000000000000000000000000000000000000000000000000000000000000000000000000000000000000000000000000000000000000000000C6
:403B00000000000000000000000000000000000000000000000000000000000000000000000000000000000000000000000000000000000000000000000000000000000085
:403B40000000000000000000000000000000000000000000000000000000000000000000000000000000000000000000000000000000000000000000000000000000000045
:403B80000000000000000000000000000000000000000000000000000000000000000000000000000000000000000000000000000000000000000000000000000000000005
:403BC00000000000000000000000000000000000000000000000000000000000000000000000000000000000000000000000000000000000000000000000000000000000C5
:403C00000000000000000000000000000000000000000000000000000000000000000000000000000000000000000000000000000000000000000000000000000000000084
:403C400000000000000000000000000000000000000000000000000000000000000000000000000000000000000000000000000C0000801F0000F81F0080FF1F0080FF3F26
:403C80000080BF3F0000C33F0000C03F0000E0790000F0790000F0780000F8F0000078F000FE3D3080FF3F00E0FF1F00F0FF3F00F8037F00FC00FC007C00F8003E00F001A1
:403CC0001E00E0011F00E0030F00C0030F00C0030F00C0030F00C0030F00C0030F00C0031F00E0031E00E0013E00F0017C00F800FC00FC00F8037F00F0FF3F00E0FF1F0095
:403D000080FF070000FE01000000000000000000000000000000000000000000000000000000000000000000000000000000000000000000000000000000000000000000FE
:403D40000000000000F00F0000FC3F0000FFFF0080FFFF01C01FF803E007E007E003C007F001800FF000000FF800001F7800001E7800001E7800001E7800001E7800001EB6
:403D8000F800001FF000000FF001800FF003C00FE007E007C01FF80380FFFF0100FFFF0000FE7F0000F00F0000C0030000C0030000C0030000C0030000FFFF0000FFFF0002
:403DC00000FFFF0000FFFF0000C0030000C0030000C0030000C0030000C00300000000000000000000000000000000000000000000000000000000000000000000000000F8
:403E00000000000000000000000000000000000000000000000000000000000000000000000000000000000000000000000000000000000000000000000000000000000082
:403E40000000000000000000000000000000000000000000000000000000000000000000000000000000000000000000000000000000000000000000000000000000000042
:403E80000000000000000000000000000000000000000000000000000000000000000000000000000000000000000000000000000000000000000000000000000000000002
:403EC0000000000000000000000000000000000000000000000000000000000000000000000000000000000000000020000000380000003E0000803F0000F03F0000FC3F03
:403F00000000FF3F00C0FF3B00F0FF3800F83F3800F80F3800F8033800F8003800380038003800380038003800380038003800380038003800380038003800380038003821
:403F4000003800380038003800380038003800380038003800380038003800380038E03F0038F83F0038FC3F0038FC1F0038FE1F0038FE0F0038FE070038FC030038F80067
:403F8000E03F0000F83F0000FC1F0000FE1F0000FE1F0000FE0F0000FE070000FC030000F8000000000000000000000000000000000000000000000000000000000000004D
:403FC00000000000000000000000000000000000000000000000000000C0030000C0030000C00300C0C00303E0F18F07E0FFFF07C0FFFF0380FFFF01803FFC01800FF0012A
:40400000C007E003C007E003FC03C03FFC03C03FFC03C03FFC03C03FC007E003C007E003800FF001803FFC0180FFFF01C0FFFF03E0FFFF07E0F18F07C0C0030300C00300CF
:4040400000C0030000C003000000000000000000000000000000000000000000000000000000000000000000000000000000000000000000000000000000000000000000BA
:40408000000000000000000000000000000000000000000000000000000000000000000000000000000000000000000000000000020000000E0000003E000000FE000000B4
:4040C000FE030000FE0F0000FE3F0000FEFF0000FEFF0100FEFF0700FEFF1F00FEFF7F00FEFFFF01FEFFFF07FEFFFF1FFEFFFF7FFEFFFF1FFEFFFF07FEFFFF01FEFF7F00B1
:40410000FEFF1F00FEFF0700FEFF0100FEFF0000FE3F0000FE0F0000FE030000FE0000003E0000000E000000020000000000000000000000000000000000000000000000CD
:40414000000000000000000000000000000000000000000000000000000000000000000000000000000000000000000000000000000000000000000000000000000000003F
:404180000000000000000040000000700000007C0000007F0000C07F0000F07F0000FC7F0000FF7F0080FF7F00E0FF7F00F8FF7F00FEFF7F80FFFF7FE0FFFF7FF8FFFF7F90
:4041C000FEFFFF7FF8FFFF7FE0FFFF7F80FFFF7F00FEFF7F00F8FF7F00E0FF7F0080FF7F0000FF7F0000FC7F0000F07F0000C07F0000007F0000007C0000007000000040D5
:4042000000000000000000000000000000000000000000000000000000000000000000000000000000000000000000000000000000000000000000000000000000800100FD
:404240000080010000C0030000E0070000E0070000F00F0000FC3F0000DE7B0000CFF30000C7E30000C0030000C0030000C0030000C0030000C0030000C0030000C00300D8
:4042800000C0030000C0030000C0030000C0030000C0030000C0030000C0030000C0030000C0030000C0030000C0030000C0030000C0030000C0030000C0030000C00300CE
:4042C00000C0030000C0030000C0030000C7E30000CFF30000DE7B0000FC3F0000F00F0000E0070000E0070000C003000080010000800100000000000000000000000000E3
:4043000000000000000000000000000000000000001FF800001FF800001FF800001FF800001FF800001FF800001FF800001FF800001FF800001FF800001FF800001FF80069
:40434000001FF800001FF800001FF800001FF800001FF800001FF800001FF800001FF800001FF800001FF800001FF800000FF800000E7000000E7000000E700000000000BF
:4043800000000000000000000000000000000000803FFC01803FFC01803FFC01803FFC01803FFC01803FFC0100000000000000000000000000000000000000000000000095
:4043C00000000000000000000000000000000000000000000000000000000000000000000000000000FEFF03C0FFFF03E0FFFF03F0FF8003F0FF8003F8FF8003F8FF800343
:40440000F8FF8003F8FF8003F8FF8003F8FF8003F8FF8003F0FF8003F0FF8003E0FF8003C0FF800380FF800300FE800300F8800300E0800300E0800300E0800300E0800308
:4044400000E0800300E0800300E0800300E0800300E0800300E0800300E0800300E0800300E0800300E0800300E0800300E0800300E0800300E0800300E0800300E080030C
:4044800000E0800300E0800300E0800300E0800300E0800300E0800300E0800300000000000000000000000000000000000000000000000000C07F0000F8FF0300FEFF030E
:4044C00000FFFF03803FC003800F0000C0070000C0070000C0070000C0070000C00F0000801F0000807F000000FF010000FE070000FC1F0000FE7F0000CFFF00800FFF0127
:404500008007FC03C007F003C007E007C007E007C007C007C00FC007801FC007807FC00300FFE00300FEE30100FCFF0000F07F0000E07F000000FF000000FE010000F8030D
:404540000000F0030000E0070000C0070000C0070000C0074000C007C001E003C00FF803C0FFFF01C0FFFF0000FF3F0000F80F0000000000000000000000000000000000D5
:4045800000000000000000000000000000000000000000000000000000000000000000000000000000000000000000000000000000000000000000000000000000000000FB
:4045C000FCFFFF3FFCFFFF3FFCFFFF3FFCFFFF3FFCFFFF3FFCFFFF3FFCFFFF3FFCFFFF3FFCFFFF3F00000000000000000000000000000000000000000000000000000000BA
:40460000000000000000000000000000000000000000000000000000000000000000000000000000000000000000000000000000000000000000000000000000000000007A
:4046400000000000000000000000000000000000008001000080010000C0030000E0070000E0070000F00F0000FC3F0000DE7B0000CFF30000C7E30000C1830000C00300A1
:4046800000C0030000C0030000C0030000C0030000C0030000C0030000C0030000C0030000C0030000C0030000C0030000C0030000C0030000C0030000C0030000C00300CA
:4046C00000C0030000C0030000C0030000C0030000C0030000C0030000C0030000C1830000C7E30000CFF30000DE7B0000FC3F0000F00F0000E0070000E0070000C0030091
:40470000008001000080010000000000000000000000000000FFFF0000FFFF0000FFFF0000FFFF0000000000000000000000000000000000008001000080010000C00300BA
:4047400000E0070000E0070000F00F0000FC3F0000FE7F0000CFF30000C7E30000C0030000C0030000C0030000C0030000C0030000C0030000C0030000C0030000C003006D
:4047800000C0030000C0030000C0030000C0030000C0030000C0030000C0030000C0030000C0030000C0030000C0030000C0030000C0030000C0030000C0030000C00300C9
:4047C00000C0030000C0030000C0030000C0030000C0030000C0030000C0030000C0030000C0030000C0030000C00300000000000000000000000000000000000000000058
:40480000000000000000000000C0030000C0030000C0030000C0030000C0030000C0030000C0030000C0030000C0030000C0030000C0030000C0030000C0030000C00300CE
:4048400000C0030000C0030000C0030000C0030000C0030000C0030000C0030000C0030000C0030000C0030000C0030000C0030000C0030000C0030000C0030000C0030008
:4048800000C0030000C0030000C0030000C0030000C0030000C0030000C7E30000CFF30000DE7B0000FC3F0000F00F0000E0070000E0070000C003000080010000800100D4
:4048C00000000000000000000000000000000000000000000000000000000000000000000000000000000000000000000000000000000000000000000000000000000000B8
:4049000000000000000000000000000000000000000000000000000000003800000070000000F0000000E0010000E0030000C007FCFFFF0FFCFFFF3FFCFFFF3FFCFFFF0FD0
:404940000000C0070000E0030000E0010000F00000007000000038000000000000000000000000000000000000000000000000000000000000000000000000000000000014
:4049800000000000000000000000000000000000000000000000000000000000000000000000000000000000000000000000000000000000000000000000000000000000F7
:4049C0000000000000000000000000000000000000000000000000000000000000000000000000000000000000000000001C0000000E0000000F000080070000C007000030
:404A0000E0030000F0FFFF3FFCFFFF3FFCFFFF3FF0FFFF3FE0030000C007000080070000000F0000000E0000001C000000000000000000000000000000000000000000005D
:404A40000000000000000000000000000000000000000000000000000000000000000000000000000000000000000000000000000000000000000000000000000000000036
:404A80000000000000000000000000000000000000000000000000000000000000000000000000000000000000000000000000003C0000003C0000003C0000003C00000006
:404AC0003C0000003C0000003C0000003C0000003C0000003C0000003C0000003C0000003C0000003C0000003C0000003C0000003C0000003C0000003C0000003C000000F6
:404B00003C0000003C0000003C000000FCFFFF3FFCFFFF3FFCFFFF3FFCFFFF3F000000000000000000000000000000000000000000000000000000000000000000000000DD
:404B40000000000000000000000000000000000000000000000000000000000000000000000000000000000000000000000000000000000000000000000000000000000035
:404B80000000000000000000000000000000000000000000001C3800000E7000000FF0008007E001C007E003E003C007F0FFFF0FFCFFFF3FFCFFFF3FF0FFFF0FE003C00752
:404BC000C007E0038007E001000FF000000E7000001C38000000000000000000000000000000000000000000000000000000000000000000000000000000000000000000D2
:404C00000000000000000000000000000000000000000000000000000000000000000000000000000000000000000000000000000000000000000000000000000000000074
:404C40000000000000000000008000000080000000C0010000C0010000E0030000E0030000F0070000F0070000F00F0000F80F0000F81F0000FC1F0000FC3F0000FE3F004E
:404C800000FE7F0000FF7F0000FFFF0080FFFF0080FFFF01C0FFFF01C0FFFF03E0FFFF03E0FFFF07E0FFFF07F0FFFF0FF0FFFF0FF8FFFF1FF8FFFF1FFCFFFF3FFCFFFF3F3D
:404CC000FEFFFF7F00000000000000000000000000000000000000000000000000000000000000000000000000000000000000000000000000000000000000000000000039
:404D000000000000000000000000000000000000000000000000000000000000FEFFFF7FFCFFFF3FFCFFFF3FF8FFFF1FF8FFFF1FF0FFFF0FF0FFFF0FE0FFFF07E0FFFF0798
:404D4000E0FFFF03C0FFFF03C0FFFF0180FFFF0180FFFF0000FFFF0000FF7F0000FE7F0000FE3F0000FC3F0000FC1F0000F81F0000F80F0000F00F0000F0070000F007003E
:404D800000E0030000E0030000C0010000C00100008000000080000000000000000000000000000000000000000000000000000000000000000000000000000000000000AB
:404DC00000000000000000000000000000000000000000000000000000000000000000000000000000000000000000000000000000000000000000000000000000000000B3
:404E00000000000000000000000000000000000000000000000000000000000000000000000000000000000000000000000000000000000000000000000000000000000072
:404E40000000000000000000000000000000000000000000000000000000000000000000000000000000000000000000000000000000000000000000000000000000000032
:404E80000000000000000000000000000000000000000000000000000000000000000000000000000000000000E0030000E0030000E0030000E0030000E0030000E00300A0
:404EC00000E0030000E0030000E0030000E0030000E0030000E0030000E0030000E0030000E0030000E0030000E0030000E0030000E0030000E0030000E0030000E0030082
:404F000000E0030000E0010000C0010000C0010000C00100000000000000000000000000000000000000000000F0070000F0070000F0070000F0070000F0070000F00700A0
:404F4000000000000000000000000000000000000000000000000000000000000000000000000000000000000000000000000000C00FF801C00FF801C00FF801C00FF80111
:404F8000C00FF8018007F0008007F0008007F0008007F0008007F0008007F0008007F0008007F0008007F000000000000000000000000000000000000000000000000000FA
:404FC00000000000000000000000000000000000000000000000000000000000000000000000000000000000000000000000000000000000000000000000000000000000B1
:405000000000000000000000000000000000000000000000000000000000000000000000000000000000000000000000000000000000000000000000000000000000000070
:405040000000000000000000000000000000000000C0030F00C0030F00E0810700E0810700E0810700E0810700F0C00300F0C00300F0C0030078E0010078E001E0FFFF7FC4
:40508000F0FFFF7FF0FFFF7FF0FFFF3F003CF000003CF000001E7800001E7800001E7800000F3C00000F3C00FCFFFF1FFEFFFF1FFEFFFF0FFEFFFF0F80071E0080071E00A5
:4050C000C0030F00C0030F00C0030F00C0030F00E0810700E0810700E0810700E0810700F0C00300F0C0030000000000000000000000000000000000000000000000000062
:4051000000000000000000000000000000000000000000000000000000800300008003000080030000F03F0000FCFF0100FEFF0300FFFF03809FC303808F0302C08F03006F
:40514000C0870300C0870300C0870300C0870300C08F0300808F0300809F030000BF030000FE030000FC030000F8070000F00F0000E03F0000807F000080FF000080FF01A4
:405180000080FB030080F3030080E3070080C3070080C3070080C3070080C3070080C3070080E303E080E303E087FB01E0FFFF01E0FFFF0080FF3F0000FC0F000080030007
:4051C00000800300008003000000000000000000000000000000000000000000000000000000000000000000000000000000000000000000000000F0E0070078F81F003C07
:40520000FC3F003C3E7C001E1E78000F1E7880070FF080070FF0C0030FF0E0010FF0E0010FF0F0000FF078001E7878001E783C003C3C1E00FC3F0F00F81F0F00E08707009B
:4052400000C0030000C0030000E0E10700F0F81F00F0FC3F00783C3C003C1E78001E1E78001E0FF0000F0FF080070FF080070FF0C0030FF0E0010FF0E0011E78F0001E7862
:4052800078003C3C3C00FC3F3C00F81F1E00E0070F000000000000000000000000000000000000000000000000000000000000000000000000000000000000000000000020
:4052C000000000000000000000E00F0000F83F0000FC7F0000FEFF00007EFC00003FF801001FF001001FF001001FF001001FF001001FF800003FF800003E7C00003E3F0099
:4053000000FE1F0000FC0F0000FC030000FF0100C0FF0100E0FF01F8F0F303F8F8E103F8FCE007F87CC00F783EC00F783E801F783E003F7C3E007F3C3E007E3C3E00FC3E22
:405340007E00FC1F7E00F80FFC00F00FFC01E007F803F00FF007FE1FF0FFFF3FC0FF3F7F80FF0FFE00FC0100000000000000000000000000000000000000000000000000EF
:40538000000000000000000000000000000000000000000000F00F0000F00F0000F00F0000F00F0000F00F0000F00F0000E0070000E0070000E0070000E0070000E0070070
:4053C00000E0070000E0070000E0070000E0070000E0070000000000000000000000000000000000000000000000000000000000000000000000000000000000000000002A
:40540000000000000000000000000000000000000000000000000000000000000000000000000000000000000000000000000000000000000000000000000000000000006C
:40544000000000000000000000000000000000000000000000000000000000000000000000000000000000000000000E0000C00F0000F00F0000F80F0000FE030000FF0049
:4054800000803F0000800F0000C0070000E0070000E0030000F0010000F8010000F8000000F80000007C0000007C0000007C0000007C0000003E0000003E0000003E000089
:4054C000003E0000003E0000003E0000003E0000003E0000003E0000003E0000003E0000007C0000007C0000007C0000007C000000F8000000F8000000F8010000F00100F2
:4055000000E0030000E0070000C0070000800F0000803F000000FF000000FE030000F80F0000F00F0000C00F0000000E000000000000000000000000000000007000000039
:40554000F0030000F00F0000F01F0000C07F000000FF000000FC010000F0010000E0030000E0070000C00F0000800F0000801F0000001F0000001F0000003E0000003E007D
:4055800000003E0000003E0000007C0000007C0000007C0000007C0000007C0000007C0000007C0000007C0000007C0000007C0000007C0000003E0000003E0000003E0061
:4055C00000003E0000001F0000001F0000801F0000800F0000C0070000E0070000E0030000F0010000FC010000FF0000C07F0000F01F0000F00F0000F003000070000000D3
:405600000000000000000000000000000000000000000000000000000000000000E0030000E0030000E0030000E0030000E0030020C00102E0C08103E0C3E103E00FF80383
:40564000F01FFC07E00FF803000C1800000000000010040000780F00003C1E00003E3E00001F7C00801FFC00800FF800000770000004100000000000000000000000000051
:4056800000000000000000000000000000000000000000000000000000000000000000000000000000000000000000000000000000000000000000000000000000000000EA
:4056C00000000000000000000000000000000000000000000000000000000000000000000000000000000000000000000000000000000000000000000000000000000000AA
:405700000000000000000000000000000000000000000000000000000000000000C0030000C0030000C0030000C0030000C0030000C0030000C0030000C0030000C003008E
:4057400000C0030000C00300FCFFFF3FFCFFFF3FFCFFFF3FFCFFFF3F00C0030000C0030000C0030000C0030000C0030000C0030000C0030000C0030000C0030000C0030021
:4057800000C0030000C00300000000000000000000000000000000000000000000000000000000000000000000000000000000000000000000000000000000000000000063
:4057C00000000000000000000000000000000000000000000000000000000000000000000000000000000000000000000000000000000000000000000000000000000000A9
:4058000000000000000000000000000000000000000000000000000000000000000000000000000000000000000000000000000000000000000000000000000000F0070071
:4058400000F0070000F0070000F0070000F0070000F0070000F0070000F007000080070000800700008003000080030000C0030000F0010000F0000000300000000000007F
:4058800000000000000000000000000000000000000000000000000000000000000000000000000000000000000000000000000000000000000000000000000000000000E8
:4058C00000000000000000000000000000000000000000000000000000000000000000000000000000000000E0FFFF07E0FFFF07E0FFFF07E0FFFF07000000000000000014
:405900000000000000000000000000000000000000000000000000000000000000000000000000000000000000000000000000000000000000000000000000000000000067
:405940000000000000000000000000000000000000000000000000000000000000000000000000000000000000000000000000000000000000000000000000000000000027
:4059800000000000000000000000000000000000000000000000000000000000000000000000000000000000000000000000000000000000000000000000000000000000E7
:4059C00000000000000000000000000000000000000000000000000000000000000000000000000000F00F0000F00F0000F00F0000F00F0000F00F0000F00F0000F00F00AE
:405A000000F00F000000000000000000000000000000000000000000000000000000000000000000000000000000000000000000000000000000003C0000001E0000001EEF
:405A40000000000F0000000F00008007000080070000C0030000C0030000E0010000E0010000F0000000F000000078000000780000003C0000003C0000001E0000001E002E
:405A800000000F0000000F00008007000080070000C0030000C0030000C0030000E0010000E0010000F0000000F000000078000000780000003C0000003C0000001E000049
:405AC000001E0000000F0000000F00008007000080070000C0030000C0030000E0010000E0010000F0000000F000000078000000780000003C000000000000000000000008
:405B00000000000000000000000000000000000000E0070000FC3F0000FE7F0000FFFF00801FF801C00FF003C007E003E003C007E003C007E0018007F001800FF001800F08
:405B4000F001800FF000000FF800001FF800001FF800001FF800001FF800001FF800001FF800001FF800001FF800001FF800001FF800001FF800001FF000000FF001800F13
:405B8000F001800FF001800FE0018007E003C007E003C007C007E003C00FF003801FF80100FFFF0000FE7F0000FC3F0000E007000000000000000000000000000000000088
:405BC00000000000000000000000000000000000000000000000000000000000000000000000000000000C0000800F0000F00F0000FE0F00C0FF0F00E0FF0F00E0870F00CC
:405C000060800F0000800F0000800F0000800F0000800F0000800F0000800F0000800F0000800F0000800F0000800F0000800F0000800F0000800F0000800F0000800F0014
:405C400000800F0000800F0000800F0000800F0000800F0000800F0000800F0000800F0000800F0000800F0000800F0000800F00E0FFFF3FE0FFFF3FE0FFFF3FE0FFFF3FFC
:405C8000000000000000000000000000000000000000000000000000000000000000000000000000000000000000000000000000000000000000000000FC0300C0FF0F0017
:405CC000E0FF3F00E0FF7F00E0037F006000FC000000F8000000F8010000F0010000F0010000F0010000F0010000F0010000F0010000F8000000F80000007C0000007C00EB
:405D000000003E0000001F0000800F0000C0070000E0030000F0010000F80000007C0000007C0000003E0000001F0000800F0000800F0000C0070000E0070000E0030000E0
:405D4000F0030000F0FFFF01F0FFFF01F0FFFF01F0FFFF01000000000000000000000000000000000000000000000000000000000000000000000000000000000000000074
:405D800000000000000000000000000000F80F0080FF3F0080FFFF0080FFFF008007FC018000F0030000F0030000E0030000E0030000E0030000E0030000E0030000F001D8
:405DC0000000F0010000FC0000007E0000FC1F0000FC0F0000FC1F0000FC7F000000FF000000F8010000F0030000E0030000E0030000C0070000C0070000C0070000C007AF
:405E00000000C0070000C0070000E0070000E0030000F0034000F801C003FE01C0FFFF00C0FF7F00C0FF1F0000FE0300000000000000000000000000000000000000000041
:405E40000000000000000000000000000000000000000000000000000000000000000000000000000000F8000000FC000000FE000000FE000000FF000080FF000080FF0035
:405E800000C0FF0000E0FB0000E0F90000F0F90000F8F8000078F800003CF800003EF800001EF800000FF800800FF8008007F800C003F800E003F800F001F800F000F80032
:405EC000F800F800F8FFFF1FF8FFFF1FF8FFFF1FF8FFFF1F0000F8000000F8000000F8000000F8000000F8000000F8000000F8000000F8000000F8000000F80000000000AE
:405F0000000000000000000000000000000000000000000000000000000000000000000000000000000000000000000000000000000000000000000000FFFF0300FFFF035F
:405F400000FFFF0300FFFF0300FFFF03000F0000000F0000000F0000000F0000000F0000000F0000000F0000000F0000000F0000000F000000FF010000FF0F0000FF3F003C
:405F800000FF7F000080FF000000FC010000F0030000E0030000E0030000C0070000C0070000C0070000C0070000C0070000C0070000E0070000E0030000F0038000F8014E
:405FC0008007FE0080FFFF0080FF3F0080FF1F0000FC0300000000000000000000000000000000000000000000000000000000000000000000000000000000000000000043
:40600000000000000000000000807F0000E0FF0700F8FF0700FCFF0700FE8007003F0004001F0000800F0000C00F0000C0070000C0070000E0030000E0030000E0030000FF
:40604000E0010000F0811F00F0E17F00F0F9FF01F0FDFF03F03DF807F00FE007F007C00FF007800FF003801FF003001FF003001FF003001FE003001FE003001FE003001F5B
:40608000E003001FC003800FC007800FC00FC00F801FE007003FF00300FFFF0100FEFF0000F87F0000E01F000000000000000000000000000000000000000000000000006E
:4060C0000000000000000000000000000000000000000000000000000000000000000000E0FFFF0FE0FFFF0FE0FFFF0FE0FFFF0FE0FFFF0F000080070000C0070000C003EE
:406100000000E0030000E0010000F0000000F8000000780000007C0000003C0000003E0000001E0000001F0000800F0000800F0000C0070000C0070000E0030000E0030096
:4061400000F0010000F8010000F8000000FC000000FC0000007E0000007E0000003E0000003F0000003F0000003F0000801F0000801F0000801F0000000000000000000071
:4061800000000000000000000000000000000000000000000000000000000000000000000000000000000000000000000000000000E00F0000FC7F0000FEFF0000FFFF0179
:4061C000803FFC01800FF003C007F003C007E003C007E003C007E003C007E003C00FE001C00FF001801FF001803FF80000FF7C0000FE3F0000FC1F0000F81F0000FE3F0021
:4062000000FFFF00801FFF01C00FFE03C007F803E003F007E003E007F001C00FF001C00FF001800FF001800FF001800FF001800FF003C007E007C007E00FE007C01FF803F3
:4062400080FFFF0100FFFF0000FE3F0000F00F0000000000000000000000000000000000000000000000000000000000000000000000000000000000000000000000000065
:406280000000000000F00F0000FC3F0000FEFF0000FFFF01801FF801C00FF003E007E007E003C007E0038007F001800FF001800FF001800FF001800FF001801FF001801F4C
:4062C000F001801FF003801FE003C01FE007C01FC00FE01FC03F781F80FF7F1F00FF3F1F00FC0F1F00F0031F0000000F0000800F0000800F0000800F0000C0070000C00790
:406300000000E0070000E0030000F0014000F801C003FE00C0FF7F00C0FF3F00C0FF0F0000FC0300000000000000000000000000000000000000000000000000000000009F
:40634000000000000000000000000000000000000000000000000000000000000000000000000000000000000000000000000000000000000000000000000000000000001D
:406380000000000000F00F0000F00F0000F00F0000F00F0000F00F0000F00F0000F00F0000F00F0000000000000000000000000000000000000000000000000000000000E5
:4063C000000000000000000000000000000000000000000000F00F0000F00F0000F00F0000F00F0000F00F0000F00F0000F00F0000F00F00000000000000000000000000A5
:40640000000000000000000000000000000000000000000000000000000000000000000000000000000000000000000000000000000000000000000000000000000000005C
:4064400000000000000000000000000000000000000000000000000000F00F0000F00F0000F00F0000F00F0000F00F0000F00F0000F00F0000F00F00000000000000000024
:406480000000000000000000000000000000000000000000000000000000000000000000000000000000000000F00F0000F00F0000F00F0000F00F0000F00F0000F00F00E2
:4064C00000F00F0000F00F0000800F00008007000080070000C0070000C0030000F0030000F001000070000000000000000000000000000000000000000000000000000023
:4065000000000000000000000000000000000000000000000000000000000000000000000000000000000000000000000000000000000020000000380000003E0000803F06
:406540000000E01F0000F8070000FE0100C07F0000F01F0000FC070000FF0100C07F0000F01F0000FC070000F01F0000C07F000000FF010000FC070000F01F0000C07F00DD
:406580000000FE010000F8070000E01F0000803F0000003E000000380000002000000000000000000000000000000000000000000000000000000000000000000000000089
:4065C000000000000000000000000000000000000000000000000000000000000000000000000000000000000000000000000000000000000000000000000000000000009B
:4066000000000000000000000000000000000000000000000000000000000000FCFFFF3FFCFFFF3FFCFFFF3FFCFFFF3F000000000000000000000000000000000000000076
:4066400000000000FCFFFF3FFCFFFF3FFCFFFF3FFCFFFF3F000000000000000000000000000000000000000000000000000000000000000000000000000000000000000036
:4066800000000000000000000000000000000000000000000000000000000000000000000000000000000000000000000000000000000000000000000000000000000000DA
:4066C000000000000000000000000000000000000000000000000000040000001C0000007C000000FC010000F8070000E01F0000807F000000FE030000F80F0000E03F00DD
:406700000080FF000000FE030000F80F0000E03F0000F80F0000FE030080FF0000E03F0000F80F0000FE0300807F0000E01F0000F8070000FC0100007C0000001C00000073
:4067400004000000000000000000000000000000000000000000000000000000000000000000000000000000000000000000000000000000000000000000000000FF0F0007
:40678000F0FF7F00F0FFFF01F0FFFF03F001F807F000E007F000C00FF000800FF000800F0000800F0000800F0000C0070000C0070000E0030000F0010000F80000007E0011
:4067C00000003F0000800F0000C0070000E0030000F0010000F0010000F0000000F8000000F8000000F8000000F8000000000000000000000000000000000000000000006F
:4068000000FC010000FC010000FC010000FC010000FC010000FC0100000000000000000000000000000000000000000000000000000000000000000000000000000000006A
:406840000000000000000000000000000000000000803F0000F0FF0100FCFF03007EE007001F800F800F000FC007000FC003001EE001F81EF001FE1FF000FF1FF0800F1F52
:406880007880071E78C0031E78E0011E7CE0011E3CE0011E3CE0001E3CF0001F3CF0001F3CF0001F3CF0801F3CF0801F3CF0C01F3CF0C01F3CF0E01E7CF0F11E78E0791EDA
:4068C00078E07F1E78C03FFEF0C01FFEF0000FFEE0010000E0030000C0070000800F0001003FE00100FEFF0100F8FF0100E01F000000000000000000000000000000000034
:4069000000000000000000000000000000000000000000000000000000000000000000000000000000000000000000000000000000000000000000000000000000E0070070
:4069400000E0070000F00F0000F00F0000F00F0000781F0000781F00007C3F00003C3E00003C3E00003E7C00001E7C00001FFC00000FF800000FF800800FF0018007F001E1
:40698000C007F003C007E003C003E003E003C007E0FFFF07F0FFFF0FF0FFFF0FF8FFFF1FF800001FF800001F7C00003F7C00003E7E00007E3E00007C3E00007C3F0000FCE1
:4069C0000000000000000000000000000000000000000000000000000000000000000000000000000000000000000000000000000000000000000000000000000000000097
:406A000000000000000000000000000000000000E0FF1F00E0FFFF00E0FFFF03E0FFFF07E003F007E003C00FE003800FE003800FE003800FE003800FE003C007E003E003F0
:406A4000E003FC01E0FFFF00E0FF3F00E0FF7F00E0FFFF01E003FE03E003F007E003C00FE003800FE003801FE003001FE003001FE003001FE003001FE003801FE003800F9D
:406A8000E003F00FE0FFFF07E0FFFF03E0FFFF01E0FF3F00000000000000000000000000000000000000000000000000000000000000000000000000000000000000000031
:406AC00000000000000000000000000000000000000000000000000000000000000000000000FF0300E0FF3F00F8FF3F00FEFF3F00FF013E803F0030C01F0000C00F000029
:406B0000E0070000E0030000F0030000F0010000F0010000F8000000F8000000F8000000F8000000F8000000F8000000F8000000F8000000F8000000F0010000F00100001C
:406B4000F0030000E0030000E0070000C00F0000C01F0000807F002000FF013C00FEFF3F00F8FF3F00E0FF1F0000FF010000000000000000000000000000000000000000DF
:406B80000000000000000000000000000000000000000000000000000000000000000000000000000000000000000000000000000000000000000000F8FF0300F8FF1F00C5
:406BC000F8FF7F00F8FFFF00F800FE01F800F803F800E007F800C007F800C00FF800800FF800800FF800801FF800001FF800001FF800001FF800001FF800001FF800001FAB
:406C0000F800001FF800001FF800001FF800800FF800800FF800800FF800C007F800C007F800E003F800F803F800FF01F8FFFF00F8FF7F00F8FF1F00F8FF010000000000BC
:406C40000000000000000000000000000000000000000000000000000000000000000000000000000000000000000000000000000000000000000000000000000000000014
:406C8000000000000000000000000000C0FFFF1FC0FFFF1FC0FFFF1FC0FFFF1FC0070000C0070000C0070000C0070000C0070000C0070000C0070000C0070000C007000061
:406CC000C0070000C0FFFF03C0FFFF03C0FFFF03C0FFFF03C0070000C0070000C0070000C0070000C0070000C0070000C0070000C0070000C0070000C0070000C00700003C
:406D0000C0FFFF3FC0FFFF3FC0FFFF3FC0FFFF3F0000000000000000000000000000000000000000000000000000000000000000000000000000000000000000000000005F
:406D40000000000000000000000000000000000000000000000000000000000000000000C0FFFF3FC0FFFF3FC0FFFF3FC0FFFF3FC0070000C0070000C0070000C007000003
:406D8000C0070000C0070000C0070000C0070000C0070000C0070000C0070000C0FFFF07C0FFFF07C0FFFF07C0FFFF07C0070000C0070000C0070000C0070000C00700006B
:406DC000C0070000C0070000C0070000C0070000C0070000C0070000C0070000C0070000C00700000000000000000000000000000000000000000000000000000000000094
:406E00000000000000000000000000000000000000000000000000000000000000000000000000000000000000000000000000000080FF0100F0FF1F00FCFF1F00FFFF1F8D
:406E400080FF001FC01F0018E00F0000E0070000F0030000F0010000F8010000F8000000F80000007C0000007C0000007C0000007C0000007C0000007C00FC1F7C00FC1F40
:406E80007C00FC1F7C00FC1FF800001FF800001FF801001FF001001FF003001FE007001FE00F001FC03F001F80FF011F00FFFF1F00FCFF1F00F0FF1F0080FF0000000000A7
:406EC0000000000000000000000000000000000000000000000000000000000000000000000000000000000000000000000000000000000000000000000000000000000092
:406F00000000000000000000F001800FF001800FF001800FF001800FF001800FF001800FF001800FF001800FF001800FF001800FF001800FF001800FF001800FF001800F51
:406F4000F0FFFF0FF0FFFF0FF0FFFF0FF0FFFF0FF001800FF001800FF001800FF001800FF001800FF001800FF001800FF001800FF001800FF001800FF001800FF001800F1D
:406F8000F001800FF001800FF001800F0000000000000000000000000000000000000000000000000000000000000000000000000000000000000000000000000000000051
:406FC00000000000000000000000000000000000000000000000000000000000F0FFFF07F0FFFF07F0FFFF07F0FFFF0700E0030000E0030000E0030000E0030000E003004E
:4070000000E0030000E0030000E0030000E0030000E0030000E0030000E0030000E0030000E0030000E0030000E0030000E0030000E0030000E0030000E0030000E0030020
:4070400000E0030000E0030000E0030000E00300F0FFFF07F0FFFF07F0FFFF07F0FFFF070000000000000000000000000000000000000000000000000000000000000000B0
:4070800000000000000000000000000000000000000000000000000000000000000000000000000000000000000000000000000000FFFF0000FFFF0000FFFF0000FFFF00D8
:4070C0000000F8000000F8000000F8000000F8000000F8000000F8000000F8000000F8000000F8000000F8000000F8000000F8000000F8000000F8000000F8000000F80010
:407100000000F8000000F8000000F8000000F8000000F8000000F80000007C0000007C0000007E00C0033F00C0FF1F00C0FF1F00C0FF070000FE0100000000000000000086
:40714000000000000000000000000000000000000000000000000000000000000000000000000000000000000000000000000000000000000000000000000000000000000F
:4071800000000000F001C00FF001E007F001E003F001F001F001F800F0017C00F0013E00F0013F00F0011F00F0810F00F0C10700F0E10300F0F10100F0F90100F0FD0000F7
:4071C000F07D0000F0FF0000F0FD0100F0F90100F0F10300F0E10700F0C10F00F0811F00F0013F00F0017E00F001FE00F001FC01F001F803F001F007F001E00FF001C01F4F
:40720000F001803FF001007F00000000000000000000000000000000000000000000000000000000000000000000000000000000000000000000000000000000000000002E
